:020000040800F2
:100000003804002045010008C1120008C31200088E
:10001000C7120008CB120008CF1200080000000031
:10002000000000000000000000000000D3120008E3
:10003000D512000800000000D71200085D0100087A
:100040005F0100085F0100085F0100085F01000810
:100050005F0100085F0100085F0100085F01000800
:100060005F0100085F0100085F0100085F010008F0
:100070005F0100085F0100085F0100085F010008E0
:100080005F0100085F0100085F0100085F010008D0
:100090005F0100085F0100085F0100085F010008C0
:1000A0005F0100085F0100085F0100085F010008B0
:1000B0005F0100085F0100085F0100085F010008A0
:1000C0005F0100085F0100085F0100085F01000890
:1000D0005F0100085F0100085F0100085F01000880
:1000E0005F0100085F0100085F0100085F01000870
:1000F0005F0100085F0100085F0100085F01000860
:100100005F0100085F0100085F0100085F0100084F
:100110005F0100085F0100085F0100085F0100083F
:100120005F0100085F0100085F0100085F0100082F
:10013000DFF80CD001F0FCFA004800475512000827
:10014000380400200648804706480047FEE7FEE7DF
:10015000FEE7FEE7FEE7FEE7FEE7FEE7FEE7FEE777
:1001600047020008310100080CB500200190009002
:100170006C48006840F480306A49086000BF6948F4
:10018000006800F4003000900198401C0190009835
:1001900018B90198B0F5A06FF1D16248006800F479
:1001A000003010B10120009001E000200090009884
:1001B000012843D15C48006840F010005A490860AB
:1001C0000846006820F0030008600846006840F018
:1001D0000200086053484068524948600846406839
:1001E00048600846406840F48060486008464068BF
:1001F00020F47C1048600846406840F4E8104860ED
:100200000846006840F08070086000BF45480068FC
:1002100000F000700028F9D04248406820F0030048
:10022000404948600846406840F00200486000BF0E
:100230003C48406800F00C000828F9D10CBD10B50E
:10024000FFF792FF10BD10B53648006840F001007E
:1002500034490860084640683449084031494860DC
:1002600008460068324908402E4908600846006880
:1002700020F4802008600846406820F4FE004860B2
:100280004FF41F008860FFF7DAFF4FF00060294944
:10029000086010BD10B5002100200022214B5B68D2
:1002A00003F00C0121B1042906D0082928D107E068
:1002B000214B224C236027E01F4B204C236023E07E
:1002C000184B5B6803F47010164B5B6803F48032C4
:1002D000022303EB904022B9194B4343174C236090
:1002E0000DE0104B5B6803F4003323B1144B434320
:1002F000124C236003E0104B4343104C236003E097
:100300000D4B0E4C236000BF00BF064B5B68C3F370
:1003100003130C4CE15C094B1B68CB40074C23607A
:1003200010BD000000100240002002400000FFF855
:10033000FFFFF6FE08ED00E000127A00000000204A
:1003400000093D000400002010B50446CC4884425A
:1003500008D10121042000F02FFD0021042000F02D
:100360002BFD46E0C748844208D10121082000F057
:1003700023FD0021082000F01FFD3AE0C24884421E
:1003800008D10121102000F017FD0021102000F0FD
:1003900013FD2EE0BD48844208D10121202000F049
:1003A0000BFD0021202000F007FD22E0B848844228
:1003B00008D10121402000F0FFFC0021402000F086
:1003C000FBFC16E0B348844208D10121802000F0F4
:1003D000F3FC0021802000F0EFFC0AE0AE488442EC
:1003E00007D10121801500F0E7FC0021A01500F0E5
:1003F000E3FC10BD10B50121084600F0DDFC002132
:10040000012000F0D9FC10BD2DE9F0410246002585
:100410000026002000230024002791F803C00CF0E0
:100420000F0591F803C00CF0100CBCF1000F03D0C5
:1004300091F802C04CEA050591F800C0BCF1000F2C
:1004400031D0146800202BE04FF0010C0CFA00F3BF
:10045000B1F800C00CEA03069E4220D183004FF0A1
:100460000F0C0CFA03F7BC4305FA03FC4CEA040436
:1004700091F803C0BCF1280F06D14FF0010C0CFA23
:1004800000FCC2F814C00AE091F803C0BCF1480FA8
:1004900005D14FF0010C0CFA00FCC2F810C0401C52
:1004A0000828D1D31460B1F800C0BCF1FF0F34DDCF
:1004B000546800202EE000F1080C4FF0010808FA03
:1004C0000CF3B1F800C00CEA03069E4221D1830070
:1004D0004FF00F0C0CFA03F7BC4305FA03FC4CEA8F
:1004E000040491F803C0BCF1280F05D100F1080CF9
:1004F00008FA0CF8C2F8148091F803C0BCF1480F58
:1005000007D100F1080C4FF0010808FA0CF8C2F806
:100510001080401C0828CED35460BDE8F0814FF60F
:10052000FF710180022181700421C1707047024671
:10053000002093680B400BB1012000E000207047C1
:100540000146886880B2704702460020D3680B409D
:100550000BB1012000E0002070470146C86880B25E
:10056000704701617047416170470AB1016100E065
:1005700041617047C16070474FF480320A43826125
:100580008161826182698269704702460020434B23
:1005900018684FF68073184040EA021008433F4B3A
:1005A000186070473E49C8617047F0B50A4600239D
:1005B00000240021002500F00046B6F1004F02D1D2
:1005C000364EF16901E0354E7168C0F3034583B2E0
:1005D00000F44016B6F5401F08D121F070612F4E8F
:1005E000766826F070662D4F7E6012E000F480166B
:1005F000B6F5801F06D1032606FA05F4A14341F0A3
:10060000706106E0460D360103FA06F6B14341F08B
:10061000706122B1460D360103FA06F6314300F04F
:100620000046B6F1004F02D11C4EF16101E01B4EB5
:100630007160F0BD30B500228B071C0F0F2303FA49
:1006400004F2164B08338C1053F824309343134CA8
:1006500008348D1044F8253023468C1053F824308C
:100660008C07240F00FA04F423430C4C08348D103B
:1006700044F8253030BD0A49DC310860704700007D
:1006800000080140000C014000100140001401402E
:1006900000180140001C0140002001400000014002
:1006A0000000204210B50446F748844209D10121D8
:1006B000480500F08EFB00214FF4001000F089FB8C
:1006C00008E00121880500F084FB00214FF4800040
:1006D00000F07FFB10BD2DE9F04385B004460D46C8
:1006E0000026B1460427DFF8A483A6884FF6C07021
:1006F0000640684600F0D9FADDF80880E448B8FB07
:10070000F0F01FFA80F946EA0906A68020884FF625
:10071000FE71084020800026DE49286888420CD8F7
:1007200028684000B8FBF0F087B2042F00DA0427F5
:100730003E4309F10100208427E0E8884BF6FF7171
:10074000884206D1286800EB4000B8FBF0F087B281
:1007500009E0286800EBC00101EB0010B8FBF0F0E5
:1007600087B247F48047C7F30B0008B947F0010789
:1007700047F4004006434FF4967009FB00F04FF435
:100780007A7190FBF1F0401C2084A683208840F011
:100790000100208026884FF6F5300640A888698938
:1007A000084306432680A88929890843208105B08B
:1007B000BDE8F08341F288310160002181804BF671
:1007C000FF71C1800021018141814FF4804181810D
:1007D000704721B1028842F00102028004E00288E1
:1007E0004FF6FE731A400280704721B1828842F4AE
:1007F0000062828004E082884FF2FF731A40828098
:10080000704721B1828842F48052828004E082885D
:100810004EF6FF731A408280704721B1028842F47D
:100820008072028004E002884FF6FF631A40028063
:10083000704721B1028842F40072028004E002880D
:100840004FF6FF531A400280704721B1028842F4EC
:100850008062028004E002884FF6FF331A40028073
:1008600070470A46002181894FF60173194002F052
:10087000FE0319438181704721B1828942F0010250
:10088000828104E082894FF6FE731A4082817047AC
:1008900021B1028842F04002028004E002884FF653
:1008A000BF731A40028070471AB183880B4383805C
:1008B00002E083888B438380704701827047014642
:1008C000088AC0B2704712B141F0010102E04FF650
:1008D000FE7319400182704708B50246002000905F
:1008E00000920098084400900098008808BD21B14B
:1008F000028842F40042028003E00288C2F30E0242
:1009000002807047B1F5006F04D1028842F40062A2
:10091000028004E002884FF2FF731A4002807047A1
:10092000B1F5005F04D1028842F40052028004E075
:1009300002884DF6FF731A400280704721B1028889
:1009400042F48052028004E002884EF6FF731A409F
:1009500002807047B1F5006F04D1028842F4006252
:10096000028004E002884FF2FF731A400280704751
:1009700021B1028842F02002028004E002884FF692
:10098000DF731A40028070470146088B00127047DF
:1009900021B1028842F01002028004E002884FF682
:1009A000EF731A400280704721B9028842F080023A
:1009B000028004E002884FF67F731A40028070477D
:1009C000B1F5804F05D0828B4BF6FF731A408283BE
:1009D00003E0828B42F480428283704770B5024606
:1009E0000024002500230020958A138B1B0445EA70
:1009F000030626F07F4404EA01068E4201D101205D
:100A000000E0002070BD10B5014600200023002248
:100A10008B8A0A8B120443EA020424F07F4010BD43
:100A20000CB50246002000230193009300920B0FA7
:100A3000019321F07F41019B1BB1009B1433009374
:100A400003E0090C009B18330093009B1B680B40CC
:100A50000BB1012000E000200CBD002221F07F42FC
:100A6000D3438382704730B5024600200023948828
:100A700001F0E06504EA154321F07F41948A0C40BF
:100A800054B14BB1012008E00054004000127A003C
:100A900040420F00A0860100002030BD002221F05E
:100AA0007F42D34383827047DF48006840F00100F3
:100AB000DD49086008464068DC490840DA4948607A
:100AC00008460068DA490840D749086008460068C7
:100AD00020F4802008600846406820F4FE0048604A
:100AE0004FF41F0088607047CF49096821F48031B6
:100AF000CD4A11601146096821F480211160B0F5DA
:100B0000803F03D0B0F5802F0ED106E0C6490968BA
:100B100041F48031C44A116007E0C349096841F4D7
:100B2000A021C14A116000E000BF00BF704710B5AE
:100B300001460022002300204A11012A02D1BA4CAA
:100B4000236806E0022A02D1B74C236A01E0B64CC2
:100B5000636A01F01F02012494401C400CB1012083
:100B600000E0002010BD38B50020009000240025D2
:100B700000BF3120FFF7DBFF05460098401C0090C6
:100B80000098B0F5A06F01D0002DF2D03120FFF712
:100B9000CEFF08B1012400E00024204638BD014604
:100BA0000020A14A106820F0F80040EAC10010605F
:100BB0007047A04908607047024600209A4B586869
:100BC00020F47C1042EA01031843974B58607047A9
:100BD00098490866704701460020934A506820F003
:100BE00003000843506070478F48406800F00C00D5
:100BF0007047014600208C4A506820F0F0000843FE
:100C00005060704701460020874A506820F4E06039
:100C100008435060704701460020834A506820F422
:100C2000605040EAC1005060704729B17E4A527A54
:100C300002437D4B5A7204E07B4A527A82437A4BDC
:100C40005A7270477B49D8310860704701460020CE
:100C5000754A506820F440400843506070470021B6
:100C6000714A20321170704A82F82010012802D097
:100C700004280AD104E001216B4A2032117005E0FA
:100C80000521694A2032117000E000BF00BF7047A3
:100C90006949086070476449096A0143624A116200
:100CA0007047654944390860704730B5002100221B
:100CB000002400235C4D6D6805F00C0121B104296E
:100CC00005D0082923D105E05C4D056022E05B4D8D
:100CD00005601FE0544D6D6805F47012524D6D684B
:100CE00005F48034022505EB92421CB9544D55435E
:100CF00005600BE04C4D6D6805F400351DB1504D9D
:100D00005543056002E04D4D5543056002E04B4DF3
:100D1000056000BF00BF444D6D6805F0F001090992
:100D2000484D6B5C0568DD4045603F4D6D6805F4DE
:100D3000E061090A434D6B5C4568DD4085603A4DD2
:100D40006D6805F46051C90A3E4D6B5C4568DD4035
:100D5000C560354D6D6805F44041890B3A4D6B5CBB
:100D6000C568B5FBF3F5056130BD29B12E4A52695E
:100D700002432D4B5A6104E02B4A526982432A4BAD
:100D80005A61704729B1284A92690243264B9A61F9
:100D900004E0254A92698243234B9A61704729B146
:100DA000214AD2690243204BDA6104E01E4AD2692B
:100DB00082431D4BDA61704729B11B4AD268024356
:100DC000194BDA6004E0184AD2688243164BDA60A5
:100DD000704729B1144A12690243134B1A6104E0A7
:100DE000114A12698243104B1A6170471249403907
:100DF000086070470F49C86470470B49C871704755
:100E00000948406A40F080700749486270470146CF
:100E10000020054A92680A400AB1012000E0002043
:100E20007047014988727047001002400000FFF8C7
:100E3000FFFFF6FE000042428004424200127A00A8
:100E400000093D00140000202400002010B50446D5
:100E5000FB48844209D101218803FFF7ADFF00213F
:100E60004FF48040FFF7A8FF32E0F648844209D1F2
:100E700001214804FFF7ADFF00214FF40030FFF7D8
:100E8000A8FF25E0F048844209D101218804FFF73A
:100E9000A0FF00214FF48020FFF79BFF18E0EB48F4
:100EA000844209D10121C804FFF793FF00214FF4C8
:100EB0000020FFF78EFF0BE0E548844208D10121B6
:100EC0000805FFF786FF00214FF48010FFF781FF30
:100ED00010BD2DE9F04786B005460E460024A24617
:100EE00000BFA1460027B08900B100BF2F462C8A61
:100EF0004CF6FF700440F08804432C82AC894EF617
:100F0000F3100440B08831890843718908430443D1
:100F1000AC81AC8A4FF6FF400440B0890443AC82F8
:100F200001A8FFF7C2FEC648874202D1DDF810A033
:100F300001E0DDF80CA0A88900F4004040B10AEB04
:100F4000CA0000EB0A1031684900B0FBF1F807E075
:100F50000AEBCA0000EB0A1031688900B0FBF1F817
:100F60006420B8FBF0F004012009642101FB108922
:100F7000A88900F4004040B1322000EBC900B0FB6A
:100F8000F1F000F00700044308E0322000EB091004
:100F90006421B0FBF1F000F00F0004432C8106B097
:100FA000BDE8F0874FF41651016000218180C180B7
:100FB00001810C21418100218181704710B50246D9
:100FC0000020108A4FF2FF0318400B884C882343FF
:100FD0008C882343CC8823431843108210BD002102
:100FE000018041808180C180704721B1828942F4B3
:100FF0000052828104E082894DF6FF731A4082819B
:101000007047F0B50346002400260025002040F676
:101010006A17B94200D100BF1846C1F3421401F06B
:101020001F06012707FA06F5012C01D10C3004E058
:10103000022C01D1103000E014301AB107682F43A0
:10104000076002E00768AF430760F0BD1AB1838A0A
:101050000B43838202E0838A8B4383827047028A38
:101060004FF6F0731A400282028A0A4302827047E6
:1010700082894FF2FF731A40828182890A438281FA
:10108000704721B1828942F00202828104E08289A4
:101090004FF6FD731A4082817047028A4FF6DF7364
:1010A0001A400282028A0A430282704721B1028AF0
:1010B00042F48042028204E0028A4BF6FF731A4037
:1010C00002827047C1F30802828070470146888817
:1010D000C0F308007047818941F0010181817047A8
:1010E000028BD2B20283028B42EA01220283704752
:1010F000028B02F47F420283028B0A430283704711
:1011000021B1828A42F02002828204E0828A4FF674
:10111000DF731A408282704721B1828A42F0100246
:10112000828204E0828A4FF6EF731A40828270470F
:1011300021B1828A42F00802828204E0828A4FF65C
:10114000F7731A408282704721B1828942F40042CB
:10115000828103E08289C2F30E028281704721B14D
:10116000828A42F40062828204E0828A4FF2FF7334
:101170001A4082827047828A4FF6FB731A4082823D
:10118000828A0A438282704721B1828A42F0020237
:10119000828204E0828A4FF6FD731A408282704791
:1011A00002460020B1F5007F00D100BF13880B403C
:1011B0000BB1012000E00020704701F40072B2F58D
:1011C000007F00D100BFCA430280704770B502465D
:1011D000002400230025002040F66A16B14200D109
:1011E00000BFC1F3421501F01F03012606FA03F305
:1011F000012D02D19689334006E0022D02D1168AD4
:10120000334001E0968A33400C12012606FA04F4BA
:101210001688344013B10CB1012000E0002070BDED
:1012200010B50022002340F66A14A14200D100BF8D
:101230000A1201249440A3B2DC43048010BD0000D4
:10124000003801400044004000480040004C00408D
:101250000050004000BF00F03FF80FA000F09AFAE5
:1012600000F0F2F855210B2000F02CF900F003FA01
:1012700052210C2000F026F900F0FDF902220C4961
:101280000B2000F098F90A484278017809A000F094
:1012900081FA00BFFEE70000D5E2CAC7D2BBB8F6AC
:1012A000494943CDA8D1B6CAB5D1E90A000000002A
:1012B0002C00002030782578203078257820000018
:1012C000704700BFFEE700BFFEE700BFFEE700BFBC
:1012D000FEE770477047704700B585B001210420D4
:1012E000FFF750FD01218803FFF74CFD4FF400701C
:1012F000ADF8100018208DF8130003208DF81200AF
:1013000004A94F48FFF780F84FF48060ADF8100053
:1013100004208DF8130004A94948FFF775F84FF42D
:10132000E13000900020ADF80400ADF80600ADF803
:101330000800ADF80C000C20ADF80A0069464148E1
:10134000FFF7C7FD01213F48FFF74FFE05B000BD85
:1013500070B504460D4629462046FFF7B3FE00BF90
:1013600080212046FFF71CFF0028F9D070BD2DE931
:10137000F04107460D461646002405E0295D384633
:10138000FFF7E6FF601CC4B2B442F7DB00BF4021A8
:101390003846FFF705FF0028F9D0BDE8F08170B5A9
:1013A00006460C46002500BF615D3046FFF7D0FFC2
:1013B0006D1C605D0028F7D100BF40213046FFF76B
:1013C000EFFE0028F9D070BD2DE9F04105460C462E
:1013D000260AE7B231462846FFF774FE00BF802197
:1013E0002846FFF7DDFE0028F9D039462846FFF7EA
:1013F00069FE00BF80212846FFF7D2FE0028F9D001
:10140000BDE8F08170B504460D46E1B20D48FFF726
:1014100059FE00BF80210B48FFF7C2FE0028F9D01B
:10142000204670BD10B5044600BF20210548FFF7D7
:10143000B7FE0028F9D00348FFF748FE10BD0000B2
:10144000000801400038014000B585B001210820A6
:10145000FFF798FC01214805FFF7A1FC4020ADF8FB
:1014600010001C208DF8130003208DF8120004A931
:101470009048FEF7C9FF8020ADF810001C208DF8C1
:10148000130004A98B48FEF7BFFF4FF48060ADF84E
:101490000A000001ADF80C00874800904BF6FF7081
:1014A000ADF806000020ADF804005F20ADF808009C
:1014B00069468248FFF70FF901218048FFF789F953
:1014C00005B000BD70B504460D4601217B48FFF70D
:1014D000A4F900BF7A497948FFF780FA0028F9D0CB
:1014E0000022A0217548FFF7EEF900BF7549734847
:1014F000FFF774FA0028F9D021467048FFF7DDF9AC
:1015000000BF7049891E6D48FFF768FA0028F8D0BF
:1015100029466A48FFF7D1F900BF6A49891C674824
:10152000FFF75CFA0028F8D001216448FFF781F941
:1015300070BD70B506460C46154601215F48FFF7A1
:101540006CF900BF5E495D48FFF748FA0028F9D002
:101550000022A0215948FFF7B6F900BF5949574862
:10156000FFF73CFA0028F9D031465448FFF7A5F9B7
:1015700000BF5449891E5148FFF730FA0028F8D0BF
:1015800012E021784D48FFF798F900BF4D49891CBA
:101590004A48FFF723FA0028F8D001214748FFF70F
:1015A00048F9641C681EC5B2002DEAD101214348E8
:1015B000FFF73FF970BD70B506460D461446012190
:1015C0003E48FFF72AF900BF3D493C48FFF706FABD
:1015D0000028F9D00022A0213848FFF774F900BF95
:1015E00038493648FFF7FAF90028F9D03146334830
:1015F000FFF763F900BF3349891E3048FFF7EEF962
:101600000028F8D001212D48FFF707F900BF2C4929
:101610002A48FFF7E3F90028F9D00122A021274842
:10162000FFF751F900BF2649491C2448FFF7D6F9B6
:101630000028F8D014E0012C03D100211F48FFF747
:1016400004F900BF1E493F311C48FFF7C7F90028C5
:10165000F8D01A48FFF733F928706D1C601EC4B229
:10166000002CE8D101211548FFF7E3F801211348C8
:10167000FFF7EBF870BD10B500BF01210F48FFF771
:10168000CCF800BF10490D48FFF7CAF90028F9D07F
:101690000022A0210948FFF716F90B49491C074809
:1016A000FFF7BEF90028E8D001210448FFF7C1F890
:1016B00010BD0000000C0140801A060000540040DC
:1016C0000100030082000700010000102DE9F05F17
:1016D0000546002092469B468846064681464024A1
:1016E0001BE0284641464746224600F042F8534652
:1016F0005A46C01A914110D311461846224600F0AE
:1017000029F82D1A67EB01084F46224601200021D7
:1017100000F020F817EB00094E41201EA4F101044F
:10172000DFDC484631462A464346BDE8F09F0000CC
:10173000064C074D06E0E06840F0010394E807001E
:1017400098471034AC42F6D3FEF7F6FC941A000822
:10175000B41A0008202A04DB203A00FA02F1002023
:1017600070479140C2F1200320FA03F319439040DF
:101770007047202A04DB203A21FA02F0002170474A
:1017800021FA02F3D040C2F12002914008431946E9
:10179000704700000FB4054B10B503A9044A029826
:1017A00000F018F810BC5DF814FB000005140008E8
:1017B0002800002002E008C8121F08C1002AFAD140
:1017C00070477047002001E001C1121F002AFBD1C1
:1017D000704700002DE9FF4F8DB09B460F46044631
:1017E000002606E025280BD05A460F999047641C26
:1017F000761C20780028F5D111B03046BDE8F08F76
:101800000025A8460122984900E0054314F8013F4D
:10181000203B02FA03F00842F7D120782E2817D196
:1018200014F8010F45F004052A280ED06FF02F029E
:101830002078A0F1300109290AD808EB880102EBD1
:10184000410100EB0108641CF2E757F8048B641CAB
:1018500020786C280DD004DC4C2812D06A2811D1D5
:1018600004E074280DD07A280CD10AE045F4001564
:1018700007E0617845F48015814202D1641C05F5CA
:101880008015641C2278692A45D008DC002AB3D070
:10189000582A69D0632A10D0642A08D13BE0702A04
:1018A00067D0732A13D0752A5CD0782A5CD0104692
:1018B0005A460F999047761CD3E017F8040B8DF821
:1018C000000000208DF80100E946012003E057F8F0
:1018D000049B4FF0FF3069074FF0000501D40AE088
:1018E0006D1C45450DDA8542FADB19F80510002913
:1018F000F6D106E06D1C8542FCDB19F805100029C5
:10190000F8D12E4404E019F8010B5A460F9990477C
:101910006D1EF8D2A5E00A200021CDE90801C5F32B
:10192000025002280DD001CFC117031E71F1000330
:101930000DDA4FF0000CD0EB0C006CEB01012D2305
:1019400008E0FF1D27F00707F7E80201EDE72B0588
:1019500004D52B238DF8283001233BE0EB0739D049
:101960002023F7E70A2000E010200021CDE908013C
:1019700007E01020002145F00405CDE908014FF0F3
:101980000808C5F3025002280FD001CF00214FF004
:10199000000A2B071FD5702A0DD0DDE908C38CF093
:1019A000100C5CEA030C0CD015E0FF1D27F00707B4
:1019B000F7E80201EBE740228DF828204FF0010AFA
:1019C0000BE050EA010306D030238DF828308DF863
:1019D000292002239A46582A04D024A20DF1200976
:1019E0000B9209E026A2F9E7DDE90823FFF76EFE76
:1019F0000B9B9B5C09F8013D50EA0102F4D1ADEB71
:101A0000090020300890680701D44FF001080899B8
:101A1000884502DDA8EB010000E00020804600259B
:101A200006E00AA85A46405D0F9990476D1C761C47
:101A30005545F6DB04E030205A460F999047761C56
:101A4000B8F10001A8F10108F5DC05E019F8010B77
:101A50005A460F999047761C0899481E089000290D
:101A6000F4DC641CC5E60000092801003031323383
:101A700034353637383961626364656600000000CA
:101A800030313233343536373839414243444546B4
:101A900000000000B41A0008000000202C00000024
:101AA000B4170008E01A00082C0000200C04000005
:101AB000C417000800A24A04000000000000000053
:101AC00001020304060708090000000001020304E4
:101AD00001020304060708090204060800000000CA
:0400000508000131BD
:00000001FF
